{
  "_format": "hh-sol-artifact-1",
  "contractName": "Agreement",
  "sourceName": "contracts/Agreement.sol",
  "abi": [
    {
      "inputs": [],
      "stateMutability": "nonpayable",
      "type": "constructor"
    },
    {
      "anonymous": false,
      "inputs": [
        {
          "indexed": true,
          "internalType": "address",
          "name": "previousOwner",
          "type": "address"
        },
        {
          "indexed": true,
          "internalType": "address",
          "name": "newOwner",
          "type": "address"
        }
      ],
      "name": "OwnershipTransferred",
      "type": "event"
    },
    {
      "anonymous": false,
      "inputs": [
        {
          "indexed": true,
          "internalType": "bytes32",
          "name": "role",
          "type": "bytes32"
        },
        {
          "indexed": true,
          "internalType": "bytes32",
          "name": "previousAdminRole",
          "type": "bytes32"
        },
        {
          "indexed": true,
          "internalType": "bytes32",
          "name": "newAdminRole",
          "type": "bytes32"
        }
      ],
      "name": "RoleAdminChanged",
      "type": "event"
    },
    {
      "anonymous": false,
      "inputs": [
        {
          "indexed": true,
          "internalType": "bytes32",
          "name": "role",
          "type": "bytes32"
        },
        {
          "indexed": true,
          "internalType": "address",
          "name": "account",
          "type": "address"
        },
        {
          "indexed": true,
          "internalType": "address",
          "name": "sender",
          "type": "address"
        }
      ],
      "name": "RoleGranted",
      "type": "event"
    },
    {
      "anonymous": false,
      "inputs": [
        {
          "indexed": true,
          "internalType": "bytes32",
          "name": "role",
          "type": "bytes32"
        },
        {
          "indexed": true,
          "internalType": "address",
          "name": "account",
          "type": "address"
        },
        {
          "indexed": true,
          "internalType": "address",
          "name": "sender",
          "type": "address"
        }
      ],
      "name": "RoleRevoked",
      "type": "event"
    },
    {
      "inputs": [],
      "name": "DEFAULT_ADMIN_ROLE",
      "outputs": [
        {
          "internalType": "bytes32",
          "name": "",
          "type": "bytes32"
        }
      ],
      "stateMutability": "view",
      "type": "function"
    },
    {
      "inputs": [],
      "name": "activationSwitch",
      "outputs": [],
      "stateMutability": "nonpayable",
      "type": "function"
    },
    {
      "inputs": [
        {
          "internalType": "address",
          "name": "account",
          "type": "address"
        }
      ],
      "name": "addMember",
      "outputs": [],
      "stateMutability": "nonpayable",
      "type": "function"
    },
    {
      "inputs": [
        {
          "internalType": "address[]",
          "name": "accounts",
          "type": "address[]"
        }
      ],
      "name": "addMembers",
      "outputs": [],
      "stateMutability": "nonpayable",
      "type": "function"
    },
    {
      "inputs": [],
      "name": "contractActive",
      "outputs": [
        {
          "internalType": "bool",
          "name": "",
          "type": "bool"
        }
      ],
      "stateMutability": "view",
      "type": "function"
    },
    {
      "inputs": [],
      "name": "fetchOptedInAccounts",
      "outputs": [
        {
          "internalType": "address[]",
          "name": "",
          "type": "address[]"
        }
      ],
      "stateMutability": "view",
      "type": "function"
    },
    {
      "inputs": [],
      "name": "fetchOptedOutAccounts",
      "outputs": [
        {
          "internalType": "address[]",
          "name": "",
          "type": "address[]"
        }
      ],
      "stateMutability": "view",
      "type": "function"
    },
    {
      "inputs": [
        {
          "internalType": "address",
          "name": "_address",
          "type": "address"
        }
      ],
      "name": "getAddressStatus",
      "outputs": [
        {
          "internalType": "string",
          "name": "",
          "type": "string"
        }
      ],
      "stateMutability": "view",
      "type": "function"
    },
    {
      "inputs": [
        {
          "internalType": "bytes32",
          "name": "role",
          "type": "bytes32"
        }
      ],
      "name": "getRoleAdmin",
      "outputs": [
        {
          "internalType": "bytes32",
          "name": "",
          "type": "bytes32"
        }
      ],
      "stateMutability": "view",
      "type": "function"
    },
    {
      "inputs": [
        {
          "internalType": "bytes32",
          "name": "role",
          "type": "bytes32"
        },
        {
          "internalType": "address",
          "name": "account",
          "type": "address"
        }
      ],
      "name": "grantRole",
      "outputs": [],
      "stateMutability": "nonpayable",
      "type": "function"
    },
    {
      "inputs": [
        {
          "internalType": "bytes32",
          "name": "role",
          "type": "bytes32"
        },
        {
          "internalType": "address",
          "name": "account",
          "type": "address"
        }
      ],
      "name": "hasRole",
      "outputs": [
        {
          "internalType": "bool",
          "name": "",
          "type": "bool"
        }
      ],
      "stateMutability": "view",
      "type": "function"
    },
    {
      "inputs": [
        {
          "internalType": "address",
          "name": "account",
          "type": "address"
        }
      ],
      "name": "isMember",
      "outputs": [
        {
          "internalType": "bool",
          "name": "",
          "type": "bool"
        }
      ],
      "stateMutability": "view",
      "type": "function"
    },
    {
      "inputs": [],
      "name": "leaveCommunity",
      "outputs": [],
      "stateMutability": "nonpayable",
      "type": "function"
    },
    {
      "inputs": [
        {
          "internalType": "address",
          "name": "",
          "type": "address"
        }
      ],
      "name": "optIn",
      "outputs": [
        {
          "internalType": "bool",
          "name": "",
          "type": "bool"
        }
      ],
      "stateMutability": "view",
      "type": "function"
    },
    {
      "inputs": [],
      "name": "optInToDAO",
      "outputs": [],
      "stateMutability": "nonpayable",
      "type": "function"
    },
    {
      "inputs": [
        {
          "internalType": "address",
          "name": "",
          "type": "address"
        }
      ],
      "name": "optOut",
      "outputs": [
        {
          "internalType": "bool",
          "name": "",
          "type": "bool"
        }
      ],
      "stateMutability": "view",
      "type": "function"
    },
    {
      "inputs": [],
      "name": "optOutOfDAO",
      "outputs": [],
      "stateMutability": "nonpayable",
      "type": "function"
    },
    {
      "inputs": [
        {
          "internalType": "uint256",
          "name": "",
          "type": "uint256"
        }
      ],
      "name": "optedInAccounts",
      "outputs": [
        {
          "internalType": "address",
          "name": "",
          "type": "address"
        }
      ],
      "stateMutability": "view",
      "type": "function"
    },
    {
      "inputs": [
        {
          "internalType": "uint256",
          "name": "",
          "type": "uint256"
        }
      ],
      "name": "optedOutAccounts",
      "outputs": [
        {
          "internalType": "address",
          "name": "",
          "type": "address"
        }
      ],
      "stateMutability": "view",
      "type": "function"
    },
    {
      "inputs": [],
      "name": "owner",
      "outputs": [
        {
          "internalType": "address",
          "name": "",
          "type": "address"
        }
      ],
      "stateMutability": "view",
      "type": "function"
    },
    {
      "inputs": [],
      "name": "renounceOwnership",
      "outputs": [],
      "stateMutability": "nonpayable",
      "type": "function"
    },
    {
      "inputs": [
        {
          "internalType": "bytes32",
          "name": "role",
          "type": "bytes32"
        },
        {
          "internalType": "address",
          "name": "account",
          "type": "address"
        }
      ],
      "name": "renounceRole",
      "outputs": [],
      "stateMutability": "nonpayable",
      "type": "function"
    },
    {
      "inputs": [
        {
          "internalType": "bytes32",
          "name": "role",
          "type": "bytes32"
        },
        {
          "internalType": "address",
          "name": "account",
          "type": "address"
        }
      ],
      "name": "revokeRole",
      "outputs": [],
      "stateMutability": "nonpayable",
      "type": "function"
    },
    {
      "inputs": [
        {
          "internalType": "bytes4",
          "name": "interfaceId",
          "type": "bytes4"
        }
      ],
      "name": "supportsInterface",
      "outputs": [
        {
          "internalType": "bool",
          "name": "",
          "type": "bool"
        }
      ],
      "stateMutability": "view",
      "type": "function"
    },
    {
      "inputs": [],
      "name": "totalAccounts",
      "outputs": [
        {
          "internalType": "uint256",
          "name": "",
          "type": "uint256"
        }
      ],
      "stateMutability": "view",
      "type": "function"
    },
    {
      "inputs": [
        {
          "internalType": "address",
          "name": "newOwner",
          "type": "address"
        }
      ],
      "name": "transferOwnership",
      "outputs": [],
      "stateMutability": "nonpayable",
      "type": "function"
    }
  ],
  "bytecode": "0x608060405260006002556001600560006101000a81548160ff0219169083151502179055503480156200003157600080fd5b5062000052620000466200009f60201b60201c565b620000a760201b60201c565b620000676000801b336200016d60201b60201c565b620000997f4f47000000000000000000000000000000000000000000000000000000000000336200016d60201b60201c565b620002de565b600033905090565b6000600160009054906101000a900473ffffffffffffffffffffffffffffffffffffffff16905081600160006101000a81548173ffffffffffffffffffffffffffffffffffffffff021916908373ffffffffffffffffffffffffffffffffffffffff1602179055508173ffffffffffffffffffffffffffffffffffffffff168173ffffffffffffffffffffffffffffffffffffffff167f8be0079c531659141344cd1fd0a4f28419497f9722a3daafe3b4186f6b6457e060405160405180910390a35050565b6200017f82826200018360201b60201c565b5050565b6200019582826200027460201b60201c565b6200027057600160008084815260200190815260200160002060000160008373ffffffffffffffffffffffffffffffffffffffff1673ffffffffffffffffffffffffffffffffffffffff16815260200190815260200160002060006101000a81548160ff021916908315150217905550620002156200009f60201b60201c565b73ffffffffffffffffffffffffffffffffffffffff168173ffffffffffffffffffffffffffffffffffffffff16837f2f8788117e7eff1d82e926ec794901d17c78024a50270940304540a733656f0d60405160405180910390a45b5050565b600080600084815260200190815260200160002060000160008373ffffffffffffffffffffffffffffffffffffffff1673ffffffffffffffffffffffffffffffffffffffff16815260200190815260200160002060009054906101000a900460ff16905092915050565b6124db80620002ee6000396000f3fe608060405234801561001057600080fd5b506004361061018e5760003560e01c806391d14854116100de578063d461048311610097578063e289fcb611610071578063e289fcb61461045d578063e35a9d3f1461047b578063e8624ee414610485578063f2fde38b146104b55761018e565b8063d4610483146103e1578063d547741f14610411578063e226a1b61461042d5761018e565b806391d148541461030d578063a217fddf1461033d578063a230c5241461035b578063a82c05421461038b578063b1138ad114610395578063ca6d56dc146103c55761018e565b80634b8209b41161014b57806364aa545b1161012557806364aa545b146102ab5780636f4d469b146102c9578063715018a6146102e55780638da5cb5b146102ef5761018e565b80634b8209b41461026557806358451f97146102835780635e164843146102a15761018e565b806301ffc9a714610193578063248a9ca3146101c35780632a0c5927146101f35780632f2ff15d146101fd5780632f7cf4cd1461021957806336568abe14610249575b600080fd5b6101ad60048036038101906101a89190611b50565b6104d1565b6040516101ba9190611ff6565b60405180910390f35b6101dd60048036038101906101d89190611aeb565b61054b565b6040516101ea9190612011565b60405180910390f35b6101fb61056a565b005b61021760048036038101906102129190611b14565b610612565b005b610233600480360381019061022e9190611b79565b61063b565b6040516102409190611fb9565b60405180910390f35b610263600480360381019061025e9190611b14565b61067a565b005b61026d6106fd565b60405161027a9190611fd4565b60405180910390f35b61028b61078b565b604051610298919061212e565b60405180910390f35b6102a9610791565b005b6102b36107bd565b6040516102c09190611fd4565b60405180910390f35b6102e360048036038101906102de9190611aaa565b61084b565b005b6102ed610954565b005b6102f76109dc565b6040516103049190611fb9565b60405180910390f35b61032760048036038101906103229190611b14565b610a06565b6040516103349190611ff6565b60405180910390f35b610345610a70565b6040516103529190612011565b60405180910390f35b61037560048036038101906103709190611a81565b610a77565b6040516103829190611ff6565b60405180910390f35b610393610aaa565b005b6103af60048036038101906103aa9190611a81565b610cb4565b6040516103bc9190611ff6565b60405180910390f35b6103df60048036038101906103da9190611a81565b610cd4565b005b6103fb60048036038101906103f69190611a81565b610d7d565b6040516104089190611ff6565b60405180910390f35b61042b60048036038101906104269190611b14565b610d9d565b005b61044760048036038101906104429190611a81565b610dc6565b604051610454919061202c565b60405180910390f35b610465610f6c565b6040516104729190611ff6565b60405180910390f35b610483610f7f565b005b61049f600480360381019061049a9190611b79565b6111d0565b6040516104ac9190611fb9565b60405180910390f35b6104cf60048036038101906104ca9190611a81565b61120f565b005b60007f7965db0b000000000000000000000000000000000000000000000000000000007bffffffffffffffffffffffffffffffffffffffffffffffffffffffff1916827bffffffffffffffffffffffffffffffffffffffffffffffffffffffff19161480610544575061054382611307565b5b9050919050565b6000806000838152602001908152602001600020600101549050919050565b610572611371565b73ffffffffffffffffffffffffffffffffffffffff166105906109dc565b73ffffffffffffffffffffffffffffffffffffffff16146105e6576040517f08c379a00000000000000000000000000000000000000000000000000000000081526004016105dd906120ce565b60405180910390fd5b600560009054906101000a900460ff1615600560006101000a81548160ff021916908315150217905550565b61061b8261054b565b61062c81610627611371565b611379565b6106368383611416565b505050565b6004818154811061064b57600080fd5b906000526020600020016000915054906101000a900473ffffffffffffffffffffffffffffffffffffffff1681565b610682611371565b73ffffffffffffffffffffffffffffffffffffffff168173ffffffffffffffffffffffffffffffffffffffff16146106ef576040517f08c379a00000000000000000000000000000000000000000000000000000000081526004016106e69061210e565b60405180910390fd5b6106f982826114f6565b5050565b6060600380548060200260200160405190810160405280929190818152602001828054801561078157602002820191906000526020600020905b8160009054906101000a900473ffffffffffffffffffffffffffffffffffffffff1673ffffffffffffffffffffffffffffffffffffffff1681526020019060010190808311610737575b5050505050905090565b60025481565b6107bb7f4f470000000000000000000000000000000000000000000000000000000000003361067a565b565b6060600480548060200260200160405190810160405280929190818152602001828054801561084157602002820191906000526020600020905b8160009054906101000a900473ffffffffffffffffffffffffffffffffffffffff1673ffffffffffffffffffffffffffffffffffffffff16815260200190600101908083116107f7575b5050505050905090565b610853611371565b73ffffffffffffffffffffffffffffffffffffffff166108716109dc565b73ffffffffffffffffffffffffffffffffffffffff16146108c7576040517f08c379a00000000000000000000000000000000000000000000000000000000081526004016108be906120ce565b60405180910390fd5b60005b81518110156109505761093d7f4f47000000000000000000000000000000000000000000000000000000000000838381518110610930577f4e487b7100000000000000000000000000000000000000000000000000000000600052603260045260246000fd5b6020026020010151610612565b808061094890612391565b9150506108ca565b5050565b61095c611371565b73ffffffffffffffffffffffffffffffffffffffff1661097a6109dc565b73ffffffffffffffffffffffffffffffffffffffff16146109d0576040517f08c379a00000000000000000000000000000000000000000000000000000000081526004016109c7906120ce565b60405180910390fd5b6109da60006115d7565b565b6000600160009054906101000a900473ffffffffffffffffffffffffffffffffffffffff16905090565b600080600084815260200190815260200160002060000160008373ffffffffffffffffffffffffffffffffffffffff1673ffffffffffffffffffffffffffffffffffffffff16815260200190815260200160002060009054906101000a900460ff16905092915050565b6000801b81565b6000610aa37f4f4700000000000000000000000000000000000000000000000000000000000083610a06565b9050919050565b610ab333610a77565b610af2576040517f08c379a0000000000000000000000000000000000000000000000000000000008152600401610ae99061208e565b60405180910390fd5b600660003373ffffffffffffffffffffffffffffffffffffffff1673ffffffffffffffffffffffffffffffffffffffff16815260200190815260200160002060009054906101000a900460ff16158015610b965750600760003373ffffffffffffffffffffffffffffffffffffffff1673ffffffffffffffffffffffffffffffffffffffff16815260200190815260200160002060009054906101000a900460ff16155b610bd5576040517f08c379a0000000000000000000000000000000000000000000000000000000008152600401610bcc906120ee565b60405180910390fd5b600160026000828254610be89190612206565b925050819055506001600760003373ffffffffffffffffffffffffffffffffffffffff1673ffffffffffffffffffffffffffffffffffffffff16815260200190815260200160002060006101000a81548160ff0219169083151502179055506004339080600181540180825580915050600190039060005260206000200160009091909190916101000a81548173ffffffffffffffffffffffffffffffffffffffff021916908373ffffffffffffffffffffffffffffffffffffffff160217905550610cb2610791565b565b60066020528060005260406000206000915054906101000a900460ff1681565b610cdc611371565b73ffffffffffffffffffffffffffffffffffffffff16610cfa6109dc565b73ffffffffffffffffffffffffffffffffffffffff1614610d50576040517f08c379a0000000000000000000000000000000000000000000000000000000008152600401610d47906120ce565b60405180910390fd5b610d7a7f4f4700000000000000000000000000000000000000000000000000000000000082610612565b50565b60076020528060005260406000206000915054906101000a900460ff1681565b610da68261054b565b610db781610db2611371565b611379565b610dc183836114f6565b505050565b6060610dd133610a77565b610e10576040517f08c379a0000000000000000000000000000000000000000000000000000000008152600401610e079061208e565b60405180910390fd5b600660008373ffffffffffffffffffffffffffffffffffffffff1673ffffffffffffffffffffffffffffffffffffffff16815260200190815260200160002060009054906101000a900460ff1615610e9f576040518060400160405280601c81526020017f54686973206164647265737320766f74656420746f204f707420496e000000008152509050610f67565b600760008373ffffffffffffffffffffffffffffffffffffffff1673ffffffffffffffffffffffffffffffffffffffff16815260200190815260200160002060009054906101000a900460ff1615610f2e576040518060400160405280601d81526020017f54686973206164647265737320766f74656420746f204f7074204f75740000008152509050610f67565b6040518060400160405280601b81526020017f54686973206164647265737320686173206e6f7420766f7465642e000000000081525090505b919050565b600560009054906101000a900460ff1681565b610f8833610a77565b610fc7576040517f08c379a0000000000000000000000000000000000000000000000000000000008152600401610fbe9061208e565b60405180910390fd5b600560009054906101000a900460ff16611016576040517f08c379a000000000000000000000000000000000000000000000000000000000815260040161100d9061204e565b60405180910390fd5b600660003373ffffffffffffffffffffffffffffffffffffffff1673ffffffffffffffffffffffffffffffffffffffff16815260200190815260200160002060009054906101000a900460ff161580156110ba5750600760003373ffffffffffffffffffffffffffffffffffffffff1673ffffffffffffffffffffffffffffffffffffffff16815260200190815260200160002060009054906101000a900460ff16155b6110f9576040517f08c379a00000000000000000000000000000000000000000000000000000000081526004016110f0906120ee565b60405180910390fd5b60016002600082825461110c9190612206565b925050819055506001600660003373ffffffffffffffffffffffffffffffffffffffff1673ffffffffffffffffffffffffffffffffffffffff16815260200190815260200160002060006101000a81548160ff0219169083151502179055506003339080600181540180825580915050600190039060005260206000200160009091909190916101000a81548173ffffffffffffffffffffffffffffffffffffffff021916908373ffffffffffffffffffffffffffffffffffffffff160217905550565b600381815481106111e057600080fd5b906000526020600020016000915054906101000a900473ffffffffffffffffffffffffffffffffffffffff1681565b611217611371565b73ffffffffffffffffffffffffffffffffffffffff166112356109dc565b73ffffffffffffffffffffffffffffffffffffffff161461128b576040517f08c379a0000000000000000000000000000000000000000000000000000000008152600401611282906120ce565b60405180910390fd5b600073ffffffffffffffffffffffffffffffffffffffff168173ffffffffffffffffffffffffffffffffffffffff1614156112fb576040517f08c379a00000000000000000000000000000000000000000000000000000000081526004016112f2906120ae565b60405180910390fd5b611304816115d7565b50565b60007f01ffc9a7000000000000000000000000000000000000000000000000000000007bffffffffffffffffffffffffffffffffffffffffffffffffffffffff1916827bffffffffffffffffffffffffffffffffffffffffffffffffffffffff1916149050919050565b600033905090565b6113838282610a06565b611412576113a88173ffffffffffffffffffffffffffffffffffffffff16601461169d565b6113b68360001c602061169d565b6040516020016113c7929190611f7f565b6040516020818303038152906040526040517f08c379a0000000000000000000000000000000000000000000000000000000008152600401611409919061202c565b60405180910390fd5b5050565b6114208282610a06565b6114f257600160008084815260200190815260200160002060000160008373ffffffffffffffffffffffffffffffffffffffff1673ffffffffffffffffffffffffffffffffffffffff16815260200190815260200160002060006101000a81548160ff021916908315150217905550611497611371565b73ffffffffffffffffffffffffffffffffffffffff168173ffffffffffffffffffffffffffffffffffffffff16837f2f8788117e7eff1d82e926ec794901d17c78024a50270940304540a733656f0d60405160405180910390a45b5050565b6115008282610a06565b156115d357600080600084815260200190815260200160002060000160008373ffffffffffffffffffffffffffffffffffffffff1673ffffffffffffffffffffffffffffffffffffffff16815260200190815260200160002060006101000a81548160ff021916908315150217905550611578611371565b73ffffffffffffffffffffffffffffffffffffffff168173ffffffffffffffffffffffffffffffffffffffff16837ff6391f5c32d9c69d2a47ea670b442974b53935d1edc7fd64eb21e047a839171b60405160405180910390a45b5050565b6000600160009054906101000a900473ffffffffffffffffffffffffffffffffffffffff16905081600160006101000a81548173ffffffffffffffffffffffffffffffffffffffff021916908373ffffffffffffffffffffffffffffffffffffffff1602179055508173ffffffffffffffffffffffffffffffffffffffff168173ffffffffffffffffffffffffffffffffffffffff167f8be0079c531659141344cd1fd0a4f28419497f9722a3daafe3b4186f6b6457e060405160405180910390a35050565b6060600060028360026116b0919061225c565b6116ba9190612206565b67ffffffffffffffff8111156116f9577f4e487b7100000000000000000000000000000000000000000000000000000000600052604160045260246000fd5b6040519080825280601f01601f19166020018201604052801561172b5781602001600182028036833780820191505090505b5090507f300000000000000000000000000000000000000000000000000000000000000081600081518110611789577f4e487b7100000000000000000000000000000000000000000000000000000000600052603260045260246000fd5b60200101907effffffffffffffffffffffffffffffffffffffffffffffffffffffffffffff1916908160001a9053507f780000000000000000000000000000000000000000000000000000000000000081600181518110611813577f4e487b7100000000000000000000000000000000000000000000000000000000600052603260045260246000fd5b60200101907effffffffffffffffffffffffffffffffffffffffffffffffffffffffffffff1916908160001a90535060006001846002611853919061225c565b61185d9190612206565b90505b6001811115611949577f3031323334353637383961626364656600000000000000000000000000000000600f8616601081106118c5577f4e487b7100000000000000000000000000000000000000000000000000000000600052603260045260246000fd5b1a60f81b828281518110611902577f4e487b7100000000000000000000000000000000000000000000000000000000600052603260045260246000fd5b60200101907effffffffffffffffffffffffffffffffffffffffffffffffffffffffffffff1916908160001a905350600485901c94508061194290612367565b9050611860565b506000841461198d576040517f08c379a00000000000000000000000000000000000000000000000000000000081526004016119849061206e565b60405180910390fd5b8091505092915050565b60006119aa6119a58461217a565b612149565b905080838252602082019050828560208602820111156119c957600080fd5b60005b858110156119f957816119df8882611a03565b8452602084019350602083019250506001810190506119cc565b5050509392505050565b600081359050611a1281612449565b92915050565b600082601f830112611a2957600080fd5b8135611a39848260208601611997565b91505092915050565b600081359050611a5181612460565b92915050565b600081359050611a6681612477565b92915050565b600081359050611a7b8161248e565b92915050565b600060208284031215611a9357600080fd5b6000611aa184828501611a03565b91505092915050565b600060208284031215611abc57600080fd5b600082013567ffffffffffffffff811115611ad657600080fd5b611ae284828501611a18565b91505092915050565b600060208284031215611afd57600080fd5b6000611b0b84828501611a42565b91505092915050565b60008060408385031215611b2757600080fd5b6000611b3585828601611a42565b9250506020611b4685828601611a03565b9150509250929050565b600060208284031215611b6257600080fd5b6000611b7084828501611a57565b91505092915050565b600060208284031215611b8b57600080fd5b6000611b9984828501611a6c565b91505092915050565b6000611bae8383611bba565b60208301905092915050565b611bc3816122b6565b82525050565b611bd2816122b6565b82525050565b6000611be3826121b6565b611bed81856121d9565b9350611bf8836121a6565b8060005b83811015611c29578151611c108882611ba2565b9750611c1b836121cc565b925050600181019050611bfc565b5085935050505092915050565b611c3f816122c8565b82525050565b611c4e816122d4565b82525050565b6000611c5f826121c1565b611c6981856121ea565b9350611c79818560208601612334565b611c8281612438565b840191505092915050565b6000611c98826121c1565b611ca281856121fb565b9350611cb2818560208601612334565b80840191505092915050565b6000611ccb6025836121ea565b91507f54686520636f6e7472616374206e6f206c6f6e67657220616c6c6f7773206f7060008301527f742d696e730000000000000000000000000000000000000000000000000000006020830152604082019050919050565b6000611d316020836121ea565b91507f537472696e67733a20686578206c656e67746820696e73756666696369656e746000830152602082019050919050565b6000611d716016836121ea565b91507f5265737472696374656420746f206d656d626572732e000000000000000000006000830152602082019050919050565b6000611db16026836121ea565b91507f4f776e61626c653a206e6577206f776e657220697320746865207a65726f206160008301527f64647265737300000000000000000000000000000000000000000000000000006020830152604082019050919050565b6000611e176020836121ea565b91507f4f776e61626c653a2063616c6c6572206973206e6f7420746865206f776e65726000830152602082019050919050565b6000611e576017836121fb565b91507f416363657373436f6e74726f6c3a206163636f756e74200000000000000000006000830152601782019050919050565b6000611e976016836121ea565b91507f596f75206861766520616c726561647920766f746564000000000000000000006000830152602082019050919050565b6000611ed76011836121fb565b91507f206973206d697373696e6720726f6c65200000000000000000000000000000006000830152601182019050919050565b6000611f17602f836121ea565b91507f416363657373436f6e74726f6c3a2063616e206f6e6c792072656e6f756e636560008301527f20726f6c657320666f722073656c6600000000000000000000000000000000006020830152604082019050919050565b611f798161232a565b82525050565b6000611f8a82611e4a565b9150611f968285611c8d565b9150611fa182611eca565b9150611fad8284611c8d565b91508190509392505050565b6000602082019050611fce6000830184611bc9565b92915050565b60006020820190508181036000830152611fee8184611bd8565b905092915050565b600060208201905061200b6000830184611c36565b92915050565b60006020820190506120266000830184611c45565b92915050565b600060208201905081810360008301526120468184611c54565b905092915050565b6000602082019050818103600083015261206781611cbe565b9050919050565b6000602082019050818103600083015261208781611d24565b9050919050565b600060208201905081810360008301526120a781611d64565b9050919050565b600060208201905081810360008301526120c781611da4565b9050919050565b600060208201905081810360008301526120e781611e0a565b9050919050565b6000602082019050818103600083015261210781611e8a565b9050919050565b6000602082019050818103600083015261212781611f0a565b9050919050565b60006020820190506121436000830184611f70565b92915050565b6000604051905081810181811067ffffffffffffffff821117156121705761216f612409565b5b8060405250919050565b600067ffffffffffffffff82111561219557612194612409565b5b602082029050602081019050919050565b6000819050602082019050919050565b600081519050919050565b600081519050919050565b6000602082019050919050565b600082825260208201905092915050565b600082825260208201905092915050565b600081905092915050565b60006122118261232a565b915061221c8361232a565b9250827fffffffffffffffffffffffffffffffffffffffffffffffffffffffffffffffff03821115612251576122506123da565b5b828201905092915050565b60006122678261232a565b91506122728361232a565b9250817fffffffffffffffffffffffffffffffffffffffffffffffffffffffffffffffff04831182151516156122ab576122aa6123da565b5b828202905092915050565b60006122c18261230a565b9050919050565b60008115159050919050565b6000819050919050565b60007fffffffff0000000000000000000000000000000000000000000000000000000082169050919050565b600073ffffffffffffffffffffffffffffffffffffffff82169050919050565b6000819050919050565b60005b83811015612352578082015181840152602081019050612337565b83811115612361576000848401525b50505050565b60006123728261232a565b91506000821415612386576123856123da565b5b600182039050919050565b600061239c8261232a565b91507fffffffffffffffffffffffffffffffffffffffffffffffffffffffffffffffff8214156123cf576123ce6123da565b5b600182019050919050565b7f4e487b7100000000000000000000000000000000000000000000000000000000600052601160045260246000fd5b7f4e487b7100000000000000000000000000000000000000000000000000000000600052604160045260246000fd5b6000601f19601f8301169050919050565b612452816122b6565b811461245d57600080fd5b50565b612469816122d4565b811461247457600080fd5b50565b612480816122de565b811461248b57600080fd5b50565b6124978161232a565b81146124a257600080fd5b5056fea26469706673582212202f8b934aa8d0f7681791d4838424604f75ae36259342742ba26a5d410f942cad64736f6c63430008000033",
  "linkReferences": {},
  "deployedLinkReferences": {}
}